:020000040000fa
:080000000002040000000000f2
:020000040000fa
:04000800fa020000f8
:020000040000fa
:04000c00fa020000f4
:020000040000fa
:04001000fa020000f0
:020000040000fa
:04001400fa020000ec
:020000040000fa
:04001800fa020000e8
:020000040000fa
:04001c00fa020000e4
:020000040000fa
:04002000fa020000e0
:020000040000fa
:04002400fa020000dc
:020000040000fa
:04002800fa020000d8
:020000040000fa
:04002c00fa020000d4
:020000040000fa
:04003000fa020000d0
:020000040000fa
:04003400fa020000cc
:020000040000fa
:04003800fa020000c8
:020000040000fa
:04003c00fa020000c4
:020000040000fa
:04004000fa020000c0
:020000040000fa
:04004400fa020000bc
:020000040000fa
:04004800fa020000b8
:020000040000fa
:04004c00fa020000b4
:020000040000fa
:04005000fa020000b0
:020000040000fa
:04005400fa020000ac
:020000040000fa
:04005800fa020000a8
:020000040000fa
:04005c00fa020000a4
:020000040000fa
:04006000fa020000a0
:020000040000fa
:04006400fa0200009c
:020000040000fa
:04006800fa02000098
:020000040000fa
:04006c00fa02000094
:020000040000fa
:04007000fa02000090
:020000040000fa
:04007400fa0200008c
:020000040000fa
:04007800fa02000088
:020000040000fa
:04007c00fa02000084
:020000040000fa
:04008000fa02000080
:020000040000fa
:04008400fa0200007c
:020000040000fa
:04008800fa02000078
:020000040000fa
:04008c00fa02000074
:020000040000fa
:04009000fa02000070
:020000040000fa
:04009400fa0200006c
:020000040000fa
:04009800fa02000068
:020000040000fa
:04009c00fa02000064
:020000040000fa
:0400a000fa02000060
:020000040000fa
:0400a400fa0200005c
:020000040000fa
:0400a800fa02000058
:020000040000fa
:0400ac00fa02000054
:020000040000fa
:0400b000fa02000050
:020000040000fa
:0400b400fa0200004c
:020000040000fa
:0400b800fa02000048
:020000040000fa
:0400bc00fa02000044
:020000040000fa
:0400c000fa02000040
:020000040000fa
:0400c400fa0200003c
:020000040000fa
:0400c800fa02000038
:020000040000fa
:0400cc00fa02000034
:020000040000fa
:0400d000fa02000030
:020000040000fa
:0400d400fa0200002c
:020000040000fa
:0400d800fa02000028
:020000040000fa
:0400dc00fa02000024
:020000040000fa
:0400e000fa02000020
:020000040000fa
:0400e400fa0200001c
:020000040000fa
:0400e800fa02000018
:020000040000fa
:0400ec00fa02000014
:020000040000fa
:0400f000fa02000010
:020000040000fa
:0400f400fa0200000c
:020000040000fa
:0400f800fa02000008
:020000040000fa
:0400fc00fa02000004
:020000040000fa
:04010000fa020000ff
:020000040000fa
:04010400fa020000fb
:020000040000fa
:04010800fa020000f7
:020000040000fa
:04010c00fa020000f3
:020000040000fa
:04011000fa020000ef
:020000040000fa
:04011400fa020000eb
:020000040000fa
:04011800fa020000e7
:020000040000fa
:04011c00fa020000e3
:020000040000fa
:04012000fa020000df
:020000040000fa
:04012400fa020000db
:020000040000fa
:04012800fa020000d7
:020000040000fa
:04012c00fa020000d3
:020000040000fa
:04013000fa020000cf
:020000040000fa
:04013400fa020000cb
:020000040000fa
:04013800fa020000c7
:020000040000fa
:04013c00fa020000c3
:020000040000fa
:04014000fa020000bf
:020000040000fa
:04014400fa020000bb
:020000040000fa
:04014800fa020000b7
:020000040000fa
:04014c00fa020000b3
:020000040000fa
:04015000fa020000af
:020000040000fa
:04015400fa020000ab
:020000040000fa
:04015800fa020000a7
:020000040000fa
:04015c00fa020000a3
:020000040000fa
:04016000fa0200009f
:020000040000fa
:04016400fa0200009b
:020000040000fa
:04016800fa02000097
:020000040000fa
:04016c00fa02000093
:020000040000fa
:04017000fa0200008f
:020000040000fa
:04017400fa0200008b
:020000040000fa
:04017800fa02000087
:020000040000fa
:04017c00fa02000083
:020000040000fa
:04018000fa0200007f
:020000040000fa
:04018400fa0200007b
:020000040000fa
:04018800fa02000077
:020000040000fa
:04018c00fa02000073
:020000040000fa
:04019000fa0200006f
:020000040000fa
:04019400fa0200006b
:020000040000fa
:04019800fa02000067
:020000040000fa
:04019c00fa02000063
:020000040000fa
:0401a000fa0200005f
:020000040000fa
:0401a400fa0200005b
:020000040000fa
:0401a800fa02000057
:020000040000fa
:0401ac00fa02000053
:020000040000fa
:0401b000fa0200004f
:020000040000fa
:0401b400fa0200004b
:020000040000fa
:0401b800fa02000047
:020000040000fa
:0401bc00fa02000043
:020000040000fa
:0401c000fa0200003f
:020000040000fa
:0401c400fa0200003b
:020000040000fa
:0401c800fa02000037
:020000040000fa
:0401cc00fa02000033
:020000040000fa
:0401d000fa0200002f
:020000040000fa
:0401d400fa0200002b
:020000040000fa
:0401d800fa02000027
:020000040000fa
:0401dc00fa02000023
:020000040000fa
:0401e000fa0200001f
:020000040000fa
:0401e400fa0200001b
:020000040000fa
:0401e800fa02000017
:020000040000fa
:0401ec00fa02000013
:020000040000fa
:0401f000fa0200000f
:020000040000fa
:0401f400fa0200000b
:020000040000fa
:0401f800fa02000007
:020000040000fa
:0401fc00fa02000003
:020000040000fa
:04020000fa020000fe
:020000040000fa
:04020400fa020000fa
:020000040000fa
:04020800fa020000f6
:020000040000fa
:04020c00fa020000f2
:020000040000fa
:04021000fa020000ee
:020000040000fa
:04021400fa020000ea
:020000040000fa
:04021800fa020000e6
:020000040000fa
:04021c00fa020000e2
:020000040000fa
:04022000fa020000de
:020000040000fa
:04022400fa020000da
:020000040000fa
:04022800fa020000d6
:020000040000fa
:04022c00fa020000d2
:020000040000fa
:04023000fa020000ce
:020000040000fa
:04023400fa020000ca
:020000040000fa
:04023800fa020000c6
:020000040000fa
:04023c00fa020000c2
:020000040000fa
:04024000fa020000be
:020000040000fa
:04024400fa020000ba
:020000040000fa
:04024800fa020000b6
:020000040000fa
:04024c00fa020000b2
:020000040000fa
:04025000fa020000ae
:020000040000fa
:04025400fa020000aa
:020000040000fa
:04025800fa020000a6
:020000040000fa
:04025c00fa020000a2
:020000040000fa
:04026000fa0200009e
:020000040000fa
:04026400fa0200009a
:020000040000fa
:100400000f0021000eff2d000e01880000000000eb
:10041000000020000000e000020032000001200087
:100420002002880014000700740007000000e000ac
:1004300003003a0000002000010020000200370005
:100440000000200001002000810f70000100320038
:100450000f000700000020000000e0000200320052
:1004600000000200000000009606020000000000ec
:100470000040da000000fe00200020000000e00044
:1004800002003200100020009001880000000600e9
:10049000a1028800800478000000eb001f003700f4
:1004a000e284440054a0b4009905ba00e2844400f8
:1004b00054a0b4009906ba00e284440054a0b400e9
:1004c0000006eb00476fde00fd07b200ae018800ba
:1004d000636ce10003003a000ad801000000eb0061
:1004e0000e003700606ce10008003a00004deb00a0
:1004f0000a05e800020039003420ec000af0a000f0
:100500008b05e900f9ff3e00040037006168e10057
:10051000010032000086eb000b00070019c7ba008b
:100520000e04e0001905ba0003003a000a00e000da
:10053000dbff3a0000000600fe07b200ae028800b2
:100540008a047800f5ff37000cd0a300e20f4d00bd
:100550001c003b0089027800354dba000a05e8000e
:10056000020039003420ec000af0a0008b05e900fd
:100570000f003200254dba000a05e80002003900dc
:100580003420ec000af0a0008b05e90008003200de
:100590000c00e0000600320015cdba000a05e800a4
:1005a000020039003420ec000af0a0008b05e900bd
:1005b0008984e80054a0b4000b00e000e2ff3a0098
:1005c000000006009902ba00055d78008b05e9007d
:1005d000f7ff3200c82ade00055d78008b05e900d0
:1005e000f3ff32000c00e000f1ff320019ddba0029
:1005f000eeff37000040da000000fe0000000500ba
:100600000001be001c0007000470a70003f0a10059
:1006100003f8a30013003a006509b100100032008e
:10062000090035006928e1000200350001002800ba
:100630000000050000004000818048008502e900bc
:10064000fcff3a0000000600f88f4200050035006c
:100650008100d1000080d3008502e800fcff3a0051
:10066000000006008000eb00000005004f89de005e
:100670008201780017013700c70ade00f107b200d7
:10068000f50fb20008003200e1cf42000200320054
:100690000170a00024000500810f700001003200ed
:1006a0000408050044000500810f700002003a00b4
:1006b000140005008502e9000000400081c04800e8
:1006c000fcff3b000170a0002400050003836800cc
:1006d0000700280007036300470ade000480a1002a
:1006e000c71ade000580a100f70f20000720e100f7
:1006f000420032000728e10040003200889fbe001f
:100700008a9fbe008c1f7800f107b200f307b20089
:100710000400e000640032000170a0000500e00069
:10072000680032000370a00085054200eb07b100ad
:100730000204b8000302b8008484440060854a00c3
:10074000020ab800848444000a854a00030ab800fb
:1007500004054500040033000804d0008984d20059
:100760000a85d2008b05e9006158e1003d003500a3
:100770000210200009016100030820008981610046
:10078000f70720008783640008867300c84cde00ea
:10079000c853dd00878474004855de000300e00084
:1007a0000600320082037600040032008904e8006b
:1007b00060054d000a88a3000c003a00f70f2000e6
:1007c0000758e10044003d000a70a100c75ddd004c
:1007d0000a8575008a007300090078004f067800ca
:1007e0004f05be004f04be00000006000a05d10000
:1007f0008984d3008b05e800f0ff3700881f78005c
:100800000604780090000700070278000001fd0050
:100810008101fd008c0007008702780085037200cb
:100820000778a300050032000001fd008101fd00f2
:100830009f0007004f047800000006008503720047
:100840000748a30003003200f0ff2f00f1ff27004c
:10085000f8ff37000000200001f8270088807000b2
:10086000f4ff3700880178004848dd00808171007e
:100870004848de00c850dd0001007000c850de00ae
:10088000060478000b0178001600070088807000cd
:10089000d2ff37000500e0000500320017002000fd
:1008a0003a0007009dff370081037000f9ff3a000e
:1008b000860078004f0678004f05be004f04be004a
:1008c0000000050083037100f9ff320027002000bb
:1008d0002e00070094ff370001f827008680700083
:1008e000f4ff37000100e000260032006101110032
:1008f0007810e10023003c006022b8007010e10095
:100900000400350080027800010078008000eb00d0
:10091000700151000200e000090034007003110072
:10092000062add00822ade008603dd00878272004f
:100930000200de00860bdd00070070008208de008a
:1009400084817100f4ff27000482620084817100b9
:1009500004002800848262006102600005f0a600a5
:100960000000060004827100070032000000e80069
:10097000e0804800000006000002be006000b800f1
:10098000efff37006000b80000000600889fbe003f
:100990000004eb006138e10016003a000100e000bd
:1009a00008003a00c800de004800dd008800200092
:1009b0000100e00003003a00c800de004800dd004e
:1009c000680444008184cf00e984540006003400a8
:1009d0008908dd00f08314008703de008780700043
:1009e0000900dd0009044400610214004f04be0048
:1009f000000006000300e00008003a00c811de0015
:100a00004811dd00880020000300e00003003a00e8
:100a1000c811de004811dd00680444008384cf0063
:100a2000e9845400060034008919dd00f0831400c5
:100a30008713de00878171000911dd00090444007d
:100a4000e1021400e9ff37002700200001f0a700b1
:100a500017002000470bde00f60fb2000400320042
:100a60000643e8000a0032004702b3000000060017
:100a700001037800f607b2000603700002003a0096
:100a80000703b300000006008702b3000000060061
:100a900001037800f607b20006037000020032007e
:100aa0000770a000000006000760a000000006001c
:100ab0000478a300040032000578a300030032008c
:100ac0000168a30001003a000200be000160a0001e
:100ad00000000600881f7800030478000300e0008f
:100ae00007003d0060001000e08018006001190060
:100af000e081190002003b0001f02d0003003700e7
:100b00000400070008f0a70001f0a0004f047800df
:100b100000000600889fbe008a9fbe000082700011
:100b20000402710004827100260032000004be003d
:100b30000200be006011b8006b0920009502200081
:100b40000182cf000a0039000541b1000082cf00c8
:100b5000070039000541b1000982cf0004003900c7
:100b60000541b1000882cf00010039000541b10004
:100b700005425200120032000a003b0082817100df
:100b8000610164008100d1000080d3008984d3001a
:100b90000884d3008b05e8000442e800f7ff3a0020
:100ba000070037000804440089844c000000480016
:100bb000818048008b05e9000442e900f9ff3a0012
:100bc000030007004f05be004f04be0000000600f2
:100bd00081002000618055000b003d000b002000cb
:100be00061fe2f000100e1001d00340082817100d0
:100bf000610164008904d1000884d3000000e8008a
:100c0000faff3a00710020006100640003007000e8
:100c1000020060000900320061044400e0844c00de
:100c20000988a500050032008b05e8006808e1008e
:100c300002003a008904d1000884d300f20f20009a
:100c40000258e10005003d00c75ddd00f907b20074
:100c50008980750008007800000006000bf8270066
:080c60008b0078000000050084
:020000040000fa
:100c68000600fa0010079800210798002e0090004f
:100c7800cf80de007bfe070002002a00c338240074
:100c880090fe07005cfe0700000f78001e00900031
:100c9800e10f50000a003a0005e1a9000068a90028
:100ca8000021ef009e0078001108880021088000cc
:100cb80000032000010070002008880005e1a8005a
:100cc8000080fa00000006000400fa0010079800ef
:100cd8000000eb00000f78001e009000e10f5000ac
:100ce8000d003a0000408000680060000000e0004d
:100cf8000300320010002000000f780001003700c8
:100d08000000000000408000680060000000e00073
:100d1800fcff32000068a9001e0078000080fa007d
:100d2800000006000000fa00000ea900810c200057
:100d380010002000caff07002070800061006000da
:100d480000f0a7000000ea000000e9004f00de0004
:100d5800004078000080fb00610060002170800086
:100d68000100a10001007000207088001000200020
:080d7800d5ff0700f0ff370072
:00000001FF
